{
  "contracts/EscrowFactory.sol": {
    "EscrowFactory": {
      "abi": [
        {
          "inputs": [
            {
              "internalType": "address",
              "name": "_s",
              "type": "address"
            },
            {
              "internalType": "address",
              "name": "_d",
              "type": "address"
            }
          ],
          "stateMutability": "nonpayable",
          "type": "constructor"
        },
        {
          "inputs": [],
          "name": "FailedDeployment",
          "type": "error"
        },
        {
          "inputs": [
            {
              "internalType": "uint256",
              "name": "balance",
              "type": "uint256"
            },
            {
              "internalType": "uint256",
              "name": "needed",
              "type": "uint256"
            }
          ],
          "name": "InsufficientBalance",
          "type": "error"
        },
        {
          "anonymous": false,
          "inputs": [
            {
              "indexed": true,
              "internalType": "address",
              "name": "esc",
              "type": "address"
            },
            {
              "indexed": false,
              "internalType": "bytes32",
              "name": "salt",
              "type": "bytes32"
            }
          ],
          "name": "DstCreated",
          "type": "event"
        },
        {
          "anonymous": false,
          "inputs": [
            {
              "indexed": true,
              "internalType": "address",
              "name": "esc",
              "type": "address"
            },
            {
              "indexed": false,
              "internalType": "bytes32",
              "name": "salt",
              "type": "bytes32"
            }
          ],
          "name": "SrcCreated",
          "type": "event"
        },
        {
          "inputs": [
            {
              "internalType": "bytes32",
              "name": "salt",
              "type": "bytes32"
            }
          ],
          "name": "createDstEscrow",
          "outputs": [
            {
              "internalType": "address",
              "name": "esc",
              "type": "address"
            }
          ],
          "stateMutability": "nonpayable",
          "type": "function"
        },
        {
          "inputs": [
            {
              "internalType": "bytes32",
              "name": "salt",
              "type": "bytes32"
            }
          ],
          "name": "createSrcEscrow",
          "outputs": [
            {
              "internalType": "address",
              "name": "esc",
              "type": "address"
            }
          ],
          "stateMutability": "nonpayable",
          "type": "function"
        },
        {
          "inputs": [],
          "name": "dstImpl",
          "outputs": [
            {
              "internalType": "address",
              "name": "",
              "type": "address"
            }
          ],
          "stateMutability": "view",
          "type": "function"
        },
        {
          "inputs": [
            {
              "internalType": "bytes32",
              "name": "salt",
              "type": "bytes32"
            }
          ],
          "name": "predictDstEscrow",
          "outputs": [
            {
              "internalType": "address",
              "name": "",
              "type": "address"
            }
          ],
          "stateMutability": "view",
          "type": "function"
        },
        {
          "inputs": [
            {
              "internalType": "bytes32",
              "name": "salt",
              "type": "bytes32"
            }
          ],
          "name": "predictSrcEscrow",
          "outputs": [
            {
              "internalType": "address",
              "name": "",
              "type": "address"
            }
          ],
          "stateMutability": "view",
          "type": "function"
        },
        {
          "inputs": [],
          "name": "srcImpl",
          "outputs": [
            {
              "internalType": "address",
              "name": "",
              "type": "address"
            }
          ],
          "stateMutability": "view",
          "type": "function"
        }
      ],
      "evm": {
        "bytecode": {
          "linkReferences": {},
          "object": "60c060405234801561001057600080fd5b5060405161079a38038061079a83398181016040528101906100329190610104565b8173ffffffffffffffffffffffffffffffffffffffff1660808173ffffffffffffffffffffffffffffffffffffffff16815250508073ffffffffffffffffffffffffffffffffffffffff1660a08173ffffffffffffffffffffffffffffffffffffffff16815250505050610144565b600080fd5b600073ffffffffffffffffffffffffffffffffffffffff82169050919050565b60006100d1826100a6565b9050919050565b6100e1816100c6565b81146100ec57600080fd5b50565b6000815190506100fe816100d8565b92915050565b6000806040838503121561011b5761011a6100a1565b5b6000610129858286016100ef565b925050602061013a858286016100ef565b9150509250929050565b60805160a05161061561018560003960008181610189015281816102660152610299015260008181610165015281816101b201526101e501526106156000f3fe608060405234801561001057600080fd5b50600436106100625760003560e01c806337f7155b146100675780635267a996146100855780639bd56022146100a3578063ce84eb9c146100d3578063eabdf2bf14610103578063f3f62bb614610133575b600080fd5b61006f610163565b60405161007c91906104f0565b60405180910390f35b61008d610187565b60405161009a91906104f0565b60405180910390f35b6100bd60048036038101906100b89190610546565b6101ab565b6040516100ca91906104f0565b60405180910390f35b6100ed60048036038101906100e89190610546565b6101de565b6040516100fa91906104f0565b60405180910390f35b61011d60048036038101906101189190610546565b61025f565b60405161012a91906104f0565b60405180910390f35b61014d60048036038101906101489190610546565b610292565b60405161015a91906104f0565b60405180910390f35b7f000000000000000000000000000000000000000000000000000000000000000081565b7f000000000000000000000000000000000000000000000000000000000000000081565b60006101d77f000000000000000000000000000000000000000000000000000000000000000083610313565b9050919050565b600061020a7f000000000000000000000000000000000000000000000000000000000000000083610328565b90508073ffffffffffffffffffffffffffffffffffffffff167f3ff4ed7b15686babbfcc66d26ba5038b117a68b4e9d20f1b504f4993bb0b2533836040516102529190610582565b60405180910390a2919050565b600061028b7f000000000000000000000000000000000000000000000000000000000000000083610313565b9050919050565b60006102be7f000000000000000000000000000000000000000000000000000000000000000083610328565b90508073ffffffffffffffffffffffffffffffffffffffff167f583211e70ae4154fb82ccf381a8a806ffb49bd5093c2305f0a0b6911ace162b2836040516103069190610582565b60405180910390a2919050565b600061032083833061033e565b905092915050565b6000610336838360006103b5565b905092915050565b60006040518260388201526f5af43d82803e903d91602b57fd5bf3ff6024820152846014820152733d602d80600a3d3981f3363d3d373d3d3d363d7381528360588201526037600c820120607882015273ffffffffffffffffffffffffffffffffffffffff60556043830120169150509392505050565b6000814710156103fe5747826040517fcf4791810000000000000000000000000000000000000000000000000000000081526004016103f59291906105b6565b60405180910390fd5b763d602d80600a3d3981f3363d3d373d3d3d363d730000008460601b60e81c176000526e5af43d82803e903d91602b57fd5bf38460781b17602052826037600984f59050600073ffffffffffffffffffffffffffffffffffffffff168173ffffffffffffffffffffffffffffffffffffffff16036104a8576040517fb06ebf3d00000000000000000000000000000000000000000000000000000000815260040160405180910390fd5b9392505050565b600073ffffffffffffffffffffffffffffffffffffffff82169050919050565b60006104da826104af565b9050919050565b6104ea816104cf565b82525050565b600060208201905061050560008301846104e1565b92915050565b600080fd5b6000819050919050565b61052381610510565b811461052e57600080fd5b50565b6000813590506105408161051a565b92915050565b60006020828403121561055c5761055b61050b565b5b600061056a84828501610531565b91505092915050565b61057c81610510565b82525050565b60006020820190506105976000830184610573565b92915050565b6000819050919050565b6105b08161059d565b82525050565b60006040820190506105cb60008301856105a7565b6105d860208301846105a7565b939250505056fea264697066735822122099d27a728623fe51ce350b4a4b22d0c04175b9fdb15984be9e4f04cb6d70a9dd64736f6c634300081c0033",
          "opcodes": "PUSH1 0xC0 PUSH1 0x40 MSTORE CALLVALUE DUP1 ISZERO PUSH2 0x10 JUMPI PUSH1 0x0 DUP1 REVERT JUMPDEST POP PUSH1 0x40 MLOAD PUSH2 0x79A CODESIZE SUB DUP1 PUSH2 0x79A DUP4 CODECOPY DUP2 DUP2 ADD PUSH1 0x40 MSTORE DUP2 ADD SWAP1 PUSH2 0x32 SWAP2 SWAP1 PUSH2 0x104 JUMP JUMPDEST DUP2 PUSH20 0xFFFFFFFFFFFFFFFFFFFFFFFFFFFFFFFFFFFFFFFF AND PUSH1 0x80 DUP2 PUSH20 0xFFFFFFFFFFFFFFFFFFFFFFFFFFFFFFFFFFFFFFFF AND DUP2 MSTORE POP POP DUP1 PUSH20 0xFFFFFFFFFFFFFFFFFFFFFFFFFFFFFFFFFFFFFFFF AND PUSH1 0xA0 DUP2 PUSH20 0xFFFFFFFFFFFFFFFFFFFFFFFFFFFFFFFFFFFFFFFF AND DUP2 MSTORE POP POP POP POP PUSH2 0x144 JUMP JUMPDEST PUSH1 0x0 DUP1 REVERT JUMPDEST PUSH1 0x0 PUSH20 0xFFFFFFFFFFFFFFFFFFFFFFFFFFFFFFFFFFFFFFFF DUP3 AND SWAP1 POP SWAP2 SWAP1 POP JUMP JUMPDEST PUSH1 0x0 PUSH2 0xD1 DUP3 PUSH2 0xA6 JUMP JUMPDEST SWAP1 POP SWAP2 SWAP1 POP JUMP JUMPDEST PUSH2 0xE1 DUP2 PUSH2 0xC6 JUMP JUMPDEST DUP2 EQ PUSH2 0xEC JUMPI PUSH1 0x0 DUP1 REVERT JUMPDEST POP JUMP JUMPDEST PUSH1 0x0 DUP2 MLOAD SWAP1 POP PUSH2 0xFE DUP2 PUSH2 0xD8 JUMP JUMPDEST SWAP3 SWAP2 POP POP JUMP JUMPDEST PUSH1 0x0 DUP1 PUSH1 0x40 DUP4 DUP6 SUB SLT ISZERO PUSH2 0x11B JUMPI PUSH2 0x11A PUSH2 0xA1 JUMP JUMPDEST JUMPDEST PUSH1 0x0 PUSH2 0x129 DUP6 DUP3 DUP7 ADD PUSH2 0xEF JUMP JUMPDEST SWAP3 POP POP PUSH1 0x20 PUSH2 0x13A DUP6 DUP3 DUP7 ADD PUSH2 0xEF JUMP JUMPDEST SWAP2 POP POP SWAP3 POP SWAP3 SWAP1 POP JUMP JUMPDEST PUSH1 0x80 MLOAD PUSH1 0xA0 MLOAD PUSH2 0x615 PUSH2 0x185 PUSH1 0x0 CODECOPY PUSH1 0x0 DUP2 DUP2 PUSH2 0x189 ADD MSTORE DUP2 DUP2 PUSH2 0x266 ADD MSTORE PUSH2 0x299 ADD MSTORE PUSH1 0x0 DUP2 DUP2 PUSH2 0x165 ADD MSTORE DUP2 DUP2 PUSH2 0x1B2 ADD MSTORE PUSH2 0x1E5 ADD MSTORE PUSH2 0x615 PUSH1 0x0 RETURN INVALID PUSH1 0x80 PUSH1 0x40 MSTORE CALLVALUE DUP1 ISZERO PUSH2 0x10 JUMPI PUSH1 0x0 DUP1 REVERT JUMPDEST POP PUSH1 0x4 CALLDATASIZE LT PUSH2 0x62 JUMPI PUSH1 0x0 CALLDATALOAD PUSH1 0xE0 SHR DUP1 PUSH4 0x37F7155B EQ PUSH2 0x67 JUMPI DUP1 PUSH4 0x5267A996 EQ PUSH2 0x85 JUMPI DUP1 PUSH4 0x9BD56022 EQ PUSH2 0xA3 JUMPI DUP1 PUSH4 0xCE84EB9C EQ PUSH2 0xD3 JUMPI DUP1 PUSH4 0xEABDF2BF EQ PUSH2 0x103 JUMPI DUP1 PUSH4 0xF3F62BB6 EQ PUSH2 0x133 JUMPI JUMPDEST PUSH1 0x0 DUP1 REVERT JUMPDEST PUSH2 0x6F PUSH2 0x163 JUMP JUMPDEST PUSH1 0x40 MLOAD PUSH2 0x7C SWAP2 SWAP1 PUSH2 0x4F0 JUMP JUMPDEST PUSH1 0x40 MLOAD DUP1 SWAP2 SUB SWAP1 RETURN JUMPDEST PUSH2 0x8D PUSH2 0x187 JUMP JUMPDEST PUSH1 0x40 MLOAD PUSH2 0x9A SWAP2 SWAP1 PUSH2 0x4F0 JUMP JUMPDEST PUSH1 0x40 MLOAD DUP1 SWAP2 SUB SWAP1 RETURN JUMPDEST PUSH2 0xBD PUSH1 0x4 DUP1 CALLDATASIZE SUB DUP2 ADD SWAP1 PUSH2 0xB8 SWAP2 SWAP1 PUSH2 0x546 JUMP JUMPDEST PUSH2 0x1AB JUMP JUMPDEST PUSH1 0x40 MLOAD PUSH2 0xCA SWAP2 SWAP1 PUSH2 0x4F0 JUMP JUMPDEST PUSH1 0x40 MLOAD DUP1 SWAP2 SUB SWAP1 RETURN JUMPDEST PUSH2 0xED PUSH1 0x4 DUP1 CALLDATASIZE SUB DUP2 ADD SWAP1 PUSH2 0xE8 SWAP2 SWAP1 PUSH2 0x546 JUMP JUMPDEST PUSH2 0x1DE JUMP JUMPDEST PUSH1 0x40 MLOAD PUSH2 0xFA SWAP2 SWAP1 PUSH2 0x4F0 JUMP JUMPDEST PUSH1 0x40 MLOAD DUP1 SWAP2 SUB SWAP1 RETURN JUMPDEST PUSH2 0x11D PUSH1 0x4 DUP1 CALLDATASIZE SUB DUP2 ADD SWAP1 PUSH2 0x118 SWAP2 SWAP1 PUSH2 0x546 JUMP JUMPDEST PUSH2 0x25F JUMP JUMPDEST PUSH1 0x40 MLOAD PUSH2 0x12A SWAP2 SWAP1 PUSH2 0x4F0 JUMP JUMPDEST PUSH1 0x40 MLOAD DUP1 SWAP2 SUB SWAP1 RETURN JUMPDEST PUSH2 0x14D PUSH1 0x4 DUP1 CALLDATASIZE SUB DUP2 ADD SWAP1 PUSH2 0x148 SWAP2 SWAP1 PUSH2 0x546 JUMP JUMPDEST PUSH2 0x292 JUMP JUMPDEST PUSH1 0x40 MLOAD PUSH2 0x15A SWAP2 SWAP1 PUSH2 0x4F0 JUMP JUMPDEST PUSH1 0x40 MLOAD DUP1 SWAP2 SUB SWAP1 RETURN JUMPDEST PUSH32 0x0 DUP2 JUMP JUMPDEST PUSH32 0x0 DUP2 JUMP JUMPDEST PUSH1 0x0 PUSH2 0x1D7 PUSH32 0x0 DUP4 PUSH2 0x313 JUMP JUMPDEST SWAP1 POP SWAP2 SWAP1 POP JUMP JUMPDEST PUSH1 0x0 PUSH2 0x20A PUSH32 0x0 DUP4 PUSH2 0x328 JUMP JUMPDEST SWAP1 POP DUP1 PUSH20 0xFFFFFFFFFFFFFFFFFFFFFFFFFFFFFFFFFFFFFFFF AND PUSH32 0x3FF4ED7B15686BABBFCC66D26BA5038B117A68B4E9D20F1B504F4993BB0B2533 DUP4 PUSH1 0x40 MLOAD PUSH2 0x252 SWAP2 SWAP1 PUSH2 0x582 JUMP JUMPDEST PUSH1 0x40 MLOAD DUP1 SWAP2 SUB SWAP1 LOG2 SWAP2 SWAP1 POP JUMP JUMPDEST PUSH1 0x0 PUSH2 0x28B PUSH32 0x0 DUP4 PUSH2 0x313 JUMP JUMPDEST SWAP1 POP SWAP2 SWAP1 POP JUMP JUMPDEST PUSH1 0x0 PUSH2 0x2BE PUSH32 0x0 DUP4 PUSH2 0x328 JUMP JUMPDEST SWAP1 POP DUP1 PUSH20 0xFFFFFFFFFFFFFFFFFFFFFFFFFFFFFFFFFFFFFFFF AND PUSH32 0x583211E70AE4154FB82CCF381A8A806FFB49BD5093C2305F0A0B6911ACE162B2 DUP4 PUSH1 0x40 MLOAD PUSH2 0x306 SWAP2 SWAP1 PUSH2 0x582 JUMP JUMPDEST PUSH1 0x40 MLOAD DUP1 SWAP2 SUB SWAP1 LOG2 SWAP2 SWAP1 POP JUMP JUMPDEST PUSH1 0x0 PUSH2 0x320 DUP4 DUP4 ADDRESS PUSH2 0x33E JUMP JUMPDEST SWAP1 POP SWAP3 SWAP2 POP POP JUMP JUMPDEST PUSH1 0x0 PUSH2 0x336 DUP4 DUP4 PUSH1 0x0 PUSH2 0x3B5 JUMP JUMPDEST SWAP1 POP SWAP3 SWAP2 POP POP JUMP JUMPDEST PUSH1 0x0 PUSH1 0x40 MLOAD DUP3 PUSH1 0x38 DUP3 ADD MSTORE PUSH16 0x5AF43D82803E903D91602B57FD5BF3FF PUSH1 0x24 DUP3 ADD MSTORE DUP5 PUSH1 0x14 DUP3 ADD MSTORE PUSH20 0x3D602D80600A3D3981F3363D3D373D3D3D363D73 DUP2 MSTORE DUP4 PUSH1 0x58 DUP3 ADD MSTORE PUSH1 0x37 PUSH1 0xC DUP3 ADD KECCAK256 PUSH1 0x78 DUP3 ADD MSTORE PUSH20 0xFFFFFFFFFFFFFFFFFFFFFFFFFFFFFFFFFFFFFFFF PUSH1 0x55 PUSH1 0x43 DUP4 ADD KECCAK256 AND SWAP2 POP POP SWAP4 SWAP3 POP POP POP JUMP JUMPDEST PUSH1 0x0 DUP2 SELFBALANCE LT ISZERO PUSH2 0x3FE JUMPI SELFBALANCE DUP3 PUSH1 0x40 MLOAD PUSH32 0xCF47918100000000000000000000000000000000000000000000000000000000 DUP2 MSTORE PUSH1 0x4 ADD PUSH2 0x3F5 SWAP3 SWAP2 SWAP1 PUSH2 0x5B6 JUMP JUMPDEST PUSH1 0x40 MLOAD DUP1 SWAP2 SUB SWAP1 REVERT JUMPDEST PUSH23 0x3D602D80600A3D3981F3363D3D373D3D3D363D73000000 DUP5 PUSH1 0x60 SHL PUSH1 0xE8 SHR OR PUSH1 0x0 MSTORE PUSH15 0x5AF43D82803E903D91602B57FD5BF3 DUP5 PUSH1 0x78 SHL OR PUSH1 0x20 MSTORE DUP3 PUSH1 0x37 PUSH1 0x9 DUP5 CREATE2 SWAP1 POP PUSH1 0x0 PUSH20 0xFFFFFFFFFFFFFFFFFFFFFFFFFFFFFFFFFFFFFFFF AND DUP2 PUSH20 0xFFFFFFFFFFFFFFFFFFFFFFFFFFFFFFFFFFFFFFFF AND SUB PUSH2 0x4A8 JUMPI PUSH1 0x40 MLOAD PUSH32 0xB06EBF3D00000000000000000000000000000000000000000000000000000000 DUP2 MSTORE PUSH1 0x4 ADD PUSH1 0x40 MLOAD DUP1 SWAP2 SUB SWAP1 REVERT JUMPDEST SWAP4 SWAP3 POP POP POP JUMP JUMPDEST PUSH1 0x0 PUSH20 0xFFFFFFFFFFFFFFFFFFFFFFFFFFFFFFFFFFFFFFFF DUP3 AND SWAP1 POP SWAP2 SWAP1 POP JUMP JUMPDEST PUSH1 0x0 PUSH2 0x4DA DUP3 PUSH2 0x4AF JUMP JUMPDEST SWAP1 POP SWAP2 SWAP1 POP JUMP JUMPDEST PUSH2 0x4EA DUP2 PUSH2 0x4CF JUMP JUMPDEST DUP3 MSTORE POP POP JUMP JUMPDEST PUSH1 0x0 PUSH1 0x20 DUP3 ADD SWAP1 POP PUSH2 0x505 PUSH1 0x0 DUP4 ADD DUP5 PUSH2 0x4E1 JUMP JUMPDEST SWAP3 SWAP2 POP POP JUMP JUMPDEST PUSH1 0x0 DUP1 REVERT JUMPDEST PUSH1 0x0 DUP2 SWAP1 POP SWAP2 SWAP1 POP JUMP JUMPDEST PUSH2 0x523 DUP2 PUSH2 0x510 JUMP JUMPDEST DUP2 EQ PUSH2 0x52E JUMPI PUSH1 0x0 DUP1 REVERT JUMPDEST POP JUMP JUMPDEST PUSH1 0x0 DUP2 CALLDATALOAD SWAP1 POP PUSH2 0x540 DUP2 PUSH2 0x51A JUMP JUMPDEST SWAP3 SWAP2 POP POP JUMP JUMPDEST PUSH1 0x0 PUSH1 0x20 DUP3 DUP5 SUB SLT ISZERO PUSH2 0x55C JUMPI PUSH2 0x55B PUSH2 0x50B JUMP JUMPDEST JUMPDEST PUSH1 0x0 PUSH2 0x56A DUP5 DUP3 DUP6 ADD PUSH2 0x531 JUMP JUMPDEST SWAP2 POP POP SWAP3 SWAP2 POP POP JUMP JUMPDEST PUSH2 0x57C DUP2 PUSH2 0x510 JUMP JUMPDEST DUP3 MSTORE POP POP JUMP JUMPDEST PUSH1 0x0 PUSH1 0x20 DUP3 ADD SWAP1 POP PUSH2 0x597 PUSH1 0x0 DUP4 ADD DUP5 PUSH2 0x573 JUMP JUMPDEST SWAP3 SWAP2 POP POP JUMP JUMPDEST PUSH1 0x0 DUP2 SWAP1 POP SWAP2 SWAP1 POP JUMP JUMPDEST PUSH2 0x5B0 DUP2 PUSH2 0x59D JUMP JUMPDEST DUP3 MSTORE POP POP JUMP JUMPDEST PUSH1 0x0 PUSH1 0x40 DUP3 ADD SWAP1 POP PUSH2 0x5CB PUSH1 0x0 DUP4 ADD DUP6 PUSH2 0x5A7 JUMP JUMPDEST PUSH2 0x5D8 PUSH1 0x20 DUP4 ADD DUP5 PUSH2 0x5A7 JUMP JUMPDEST SWAP4 SWAP3 POP POP POP JUMP INVALID LOG2 PUSH5 0x6970667358 0x22 SLT KECCAK256 SWAP10 0xD2 PUSH27 0x728623FE51CE350B4A4B22D0C04175B9FDB15984BE9E4F04CB6D70 0xA9 0xDD PUSH5 0x736F6C6343 STOP ADDMOD SHR STOP CALLER "
        },
        "methodIdentifiers": {
          "createDstEscrow(bytes32)": "f3f62bb6",
          "createSrcEscrow(bytes32)": "ce84eb9c",
          "dstImpl()": "5267a996",
          "predictDstEscrow(bytes32)": "eabdf2bf",
          "predictSrcEscrow(bytes32)": "9bd56022",
          "srcImpl()": "37f7155b"
        }
      }
    }
  }
}